:020000020000FC
:1000000000C00FEF04B900270AB90FEF0DBF01E2DE
:100010000EBFBB27AA27992781E044275527002731
:10002000112766277727C2E0D4E0CC2309F41DC04E
:10003000CC2311F4882719C0CC23B9F0C69528F435
:10004000482F592F6D2F7E2F11D0BF93AF939F93C1
:100050008F934D2F5E2F6D2F7E2F08D0D82FE92F35
:100060008F919F91AF91BF91E7CFD3CF4F935F9384
:100070000F931F936F937F93BB27AA2799278827F6
:10008000772309F002C0662361F07695679520F426
:10009000840F951FA01FB11F440F551F001F111F74
:1000A000EFCF7F916F911F910F915F914F910895C5
:00000001FF
