:020000020000FC
:020000006AC0D4
:10008C006BC09F93AF930F93BB270027AA2359F004
:10009C00992349F08894BB0F990F001F0A1710F091
:1000AC00B3950A1BF5CF0F91AF919F9108959F9334
:1000BC00AF930F93E6DFBA9F901990300CF49195A3
:1000CC00B92F0F91AF919F9108950FEF04B90027AD
:1000DC000AB90FEF0DBF01E20EBF04E005BD01E050
:1000EC0000936E00CC273327789426E114E14EE17F
:1000FC0053E06EE00AD0CA37ECF306B50231ECF3EC
:10010C00002706BDCC272ED0F5CF09B100950023D2
:10011C0021F4309535B930951EC000FF03C03095E1
:10012C0035B9309501FF03C0209525B9209502FF04
:10013C0003C0109515B9109503FF03C0409545B940
:10014C00409504FF03C0509555B9509505FF03C069
:10015C00609565B9609508950F930FB7C3950FBF60
:10016C000F91189533953C3389F4332723952C3311
:10017C0069F422271395183149F4112743954C3112
:10018C0029F4B2D05D3011F45527639508954F933F
:10019C005F938F930F93533049F41230B1F4803046
:1001AC00A1F40FE1041B073084F413955A3069F461
:1001BC00133059F4803049F40FE1041B07302CF450
:1001CC001EF01A95689401C0E8940F918F935F917B
:1001DC004F9108954F935F936F930F93062F0F9347
:1001EC0005950595600F962FA7E061DF6B2F0F919A
:1001FC00059518F0059508F06A95513011F450E00A
:10020C002CC0513011F453E028C0513011F453E09C
:10021C0024C0513011F456E020C0513011F451E09B
:10022C001CC0513011F454E018C0513011F456E098
:10023C0014C0513011F452E010C0513011F455E09B
:10024C000CC0513011F450E008C0513011F453E09F
:10025C0004C0513011F455E000C0942FA7E027DF03
:10026C004B2F0A5F060F050F040F902FA7E01FDF1F
:10027C000F916F915F914F9108954F935F930F93EF
:10028C00942FA7E0FEDE7B2F942FA7E010DF4B2FDF
:10029C005A950ED0942FA7E0F4DE7B0F942FA7E095
:1002AC0006DF4B2F5A95A9F70F915F914F91089547
:1002BC000F93523079F4573020F0052F059528F420
:1002CC0006C0052F059508F002C0425E02C0415ED3
:1002DC0000C008C0062F059520F0059510F0435E70
:1002EC0001C0445E0F9108950F935230A9F44D3123
:1002FC00F8F0573020F0052F059528F407C0052F8E
:10030C00059508F003C041E0539505C05E3118F027
:10031C0041E0539500C00CC0062F059538F00595AB
:10032C0028F04D3111F441E0539502C041E0539552
:04033C000F91089580
:00000001FF
