:020000020000FC
:020000006AC0D4
:10008C0041C09F93AF930F93BB270027AA2359F02E
:10009C00992349F08894BB0F990F001F0A1710F091
:1000AC00B3950A1BF5CF0F91AF919F9108959F9334
:1000BC00AF930F93E6DFBA9F901990300CF49195A3
:1000CC00B92F0F91AF919F9108950FEF04B90027AD
:1000DC000AB90FEF0DBF01E20EBF04E005BD01E050
:1000EC0000936E00CC2733277894CA37F4F306B507
:1000FC000231ECF3002706BDCC270AD0309535B978
:10010C003095F3CF0F930FB7C3950FBF0F91189581
:10011C0033953C3389F4332723952C3369F4222708
:10012C001395183149F4112743954C3129F4B2D069
:10013C005D3011F45527639508954F935F938F931A
:10014C000F93533049F41230B1F48030A1F40FE125
:10015C00041B073084F413955A3069F4133059F4A6
:10016C00803049F40FE1041B07302CF41EF01A9573
:10017C00689401C0E8940F918F935F914F9108950B
:10018C004F935F936F930F93062F0F9305950595E0
:10019C00600F962FA7E08BDF6B2F0F91059518F052
:1001AC00059508F06A95513011F450E02CC051308F
:1001BC0011F453E028C0513011F453E024C05130F5
:1001CC0011F456E020C0513011F451E01CC05130F4
:1001DC0011F454E018C0513011F456E014C05130F1
:1001EC0011F452E010C0513011F455E00CC05130F4
:1001FC0011F450E008C0513011F453E004C05130F8
:10020C0011F455E000C0942FA7E051DF4B2F0A5F8B
:10021C00060F050F040F902FA7E049DF0F916F9188
:10022C005F914F9108954F935F930F93942FA7E095
:10023C0028DF7B2F942FA7E03ADF4B2F5A950ED057
:10024C00942FA7E01EDF7B0F942FA7E030DF4B2FFE
:10025C005A95A9F70F915F914F9108950F935230D2
:10026C0079F4573020F0052F059528F406C0052F9A
:10027C00059508F002C0425E02C0415E00C008C095
:10028C00062F059520F0059510F0435E01C0445EE5
:10029C000F9108950F935230A9F44D31F8F0573067
:1002AC0020F0052F059528F407C0052F059508F0BB
:1002BC0003C041E0539505C05E3118F041E0539501
:1002CC0000C00CC0062F059538F0059528F04D316F
:1002DC0011F441E0539502C041E053950F910895FC
:00000001FF
