:020000020000FC
:100000006EC00F930FB70F9303EC00000A95E9F74A
:1000100000000F910FBF0F9108950F930FB70F932B
:1000200009E012D00A95E9F709E035D0EADF0A9530
:10003000E1F705EB00000A95E9F700000000000079
:100040000F910FBF0F9108950F930FB70F9303E612
:10005000D8DF0A95E9F709E700000A95E9F70F915B
:100060000FBF0F9108950F930FB70F9309E0D5DFDE
:100070000A95E9F709E0E8DF0A95E9F709E00BD00E
:10008000C0DF0A95E1F70FEA00000A95E9F70F9142
:100090000FBF0F9108950F930FB70F9309E0B1DFD2
:1000A0000A95E9F70CEB00000A95E9F7000000005B
:1000B0000F910FBF0F9108950F930FB70F939F9359
:1000C00009E09FDF0A95E9F709EF0A95F1F70000CB
:1000D0009A95B1F79F910F910FBF0F9108950FEF70
:1000E00004B900270AB90FEF0DBF01E20EBF89DF87
:1000F00001D0FDCF33953C3389F4332723952C333E
:1001000069F422271395183149F4112743954C318E
:1001100029F405D05D3011F45527639508950F93A8
:100120005230A9F44D31F8F0573020F0052F0595E5
:1001300028F407C0052F059508F003C041E053954A
:1001400005C05E3118F041E0539500C00CC0062F89
:10015000059538F0059528F04D3111F441E053959F
:0A01600002C041E053950F9108958D
:00000001FF
