:020000020000FC
:1000000000C00FEF04B900270AB90FEF0DBF01E2DE
:100010000EBF01D0FECF0F930FB70F9309E012D0A0
:100020000A95E9F709E01DD02DD00A95E1F705EB17
:1000300000000A95E9F70000000000000F910FBFD3
:100040000F9108950F930FB70F9303E61BD00A95F6
:10005000E9F709E700000A95E9F70F910FBF0F9143
:1000600008950F930FB70F9309E00CD00A95E9F7A5
:100070000CEB00000A95E9F7000000000F910FBF9C
:100080000F9108950F930FB70F9303EC00000A959B
:0C009000E9F700000F910FBF0F910895D9
:00000001FF
